:020000040800F2
:10000000E0060020453D00084501000849010008C0
:100010004D010008510100085501000800000000D2
:10002000000000000000000000000000590100086E
:100030005D01000800000000610100086501000882
:100040005F3D00085F3D00085F3D00086D0100084E
:100050005F3D00085F3D00085F3D00085F3D000810
:100060005F3D00085F3D0008B56600085F3D000881
:100070005F3D00085F3D00085F3D00085F3D0008F0
:100080005F3D00085F3D00085F3D00085F3D0008E0
:100090005F3D00085F3D00085F3D00085F3D0008D0
:1000A0005F3D00085F3D00085F3D00085F3D0008C0
:1000B0005F3D00085F3D00085F3D00085F3D0008B0
:1000C0005F3D00085F3D00085F3D00085F3D0008A0
:1000D0005F3D00085F3D00085F3D00085F3D000890
:1000E000D96600085F3D00085F3D00085F3D0008DD
:1000F0005F3D00085F3D00085F3D00085F3D000870
:100100005F3D00085F3D00085F3D00085F3D00085F
:100110005F3D00085F3D00085F3D00085F3D00084F
:100120005F3D00085F3D00085F3D00085F3D00083F
:10013000DFF80CD007F0ACFA00480047BD0100081A
:10014000E0060020704700BFFFE7FEE7FFE7FEE79D
:10015000FFE7FEE7FFE7FEE7704700BF704700BF1D
:10016000704700BF80B500F0CDFB80BD80B5022098
:1001700002F064FE08B3FFE7022002F077FE48F2C7
:100180008740C0F6000007F023FB40F2B921C2F21D
:1001900000010620087002F0BBFD02F0D9FD45F217
:1001A0008011C0F20101884206D1FFE7002002F071
:1001B000E5FD02F0ADFDFFE7FFE780BD80B59AB039
:1001C000002014901990012110918DF8591015906C
:1001D00000F01EFB06F00EFC06F00CF906F004FA27
:1001E00006F094F906F060FC48F21420C0F6000016
:1001F00007F0EEFA06F08CFD06F028FD06F0E0FFB1
:1002000040F27410C2F2000040F2D941C0F6000181
:10021000016040F23D51C0F60001816040F2196179
:10022000C0F60001416040F23561C0F60001C160D6
:1002300040F25561C0F60001016140F27561C0F6FF
:100240000001816148F27811C0F600010D91096842
:1002500088470D98C1684EF2C030C1F61240119027
:1002600088470D991098149BD1F824C06A460C92C7
:1002700040F6B8311162D361936153611061D3606C
:1002800008210E9191605060072112911160112197
:100290001A46E0470D98109B129A1499DDF838E041
:1002A000D0F818C068460F9043620162C161816155
:1002B00043610161C1608160C0F804E001601846DB
:1002C000E047149805F0DEFB06F00AFD05F07AF928
:1002D000402005F0DDFC149805F0C8FB109805F0EF
:1002E000A1F948F27931C0F600010DF15A001390DE
:1002F00006F0C6FF1199129A139B48F2F120C0F63E
:10030000000007F065FA06F047FB06F061FB149861
:1003100040F20901C2F200010870FFE740F2090053
:10032000C2F20000007801460B91042800F283809D
:100330000B99DFE801F0031A3156650040F209011C
:10034000C2F200010520087006F0CAFB48F26C20DA
:10035000C0F6000007F03CFA00F0C0F940F2C421FA
:10036000C2F200010020086066E040F20901C2F21A
:1003700000010520087006F0EFFB48F24F20C0F6A0
:10038000000007F025FA00F0DFF940F2C421C2F2C4
:100390000001012008604FE040F20901C2F20001B3
:1003A0000520087006F014FC48F29720C0F6000003
:1003B00007F00EFA48F27810C0F60000C16B4FF457
:1003C0007A70884740F2C421C2F20001022008601E
:1003D0000020159048F2EC10C0F6000007F0F8F984
:1003E0002AE040F20901C2F200010520087006F07F
:1003F0002DFC48F27810C0F60000806B80471BE0AF
:1004000040F20901C2F200010520087006F01CFC50
:1004100048F27810C0F60000406B804748F2852013
:10042000C0F6000007F0D4F940F2C421C2F2000186
:100430000420086000E0FFE740F20900C2F200007B
:100440000078052811D1FFE748F27810C0F60000C7
:10045000806E38B1FFE748F27810C0F60000806E79
:100460008047FFE706F038FBFFE740F2C420C2F206
:1004700000000068022814D1FFE7012006F040F9CF
:10048000159801301590159840F6B831884207D379
:10049000FFE740F20901C2F2000104200870FFE703
:1004A000FFE740F2C420C2F200000068042812D125
:1004B000FFE7012006F024F91598013015901598F2
:1004C0000A2807D3FFE740F20901C2F20001002029
:1004D0000870FFE7FFE721E780B582B048F23C30C3
:1004E000C0F6000007F074F948F27810C0F600007A
:1004F000806B8047322000F0F1F940F2C420C2F254
:100500000000006838B9FFE740F20901C2F20001BB
:10051000012008700FE040F2C420C2F20000006821
:10052000012807D1FFE740F20901C2F200010020D3
:100530000870FFE7FFE702B080BD00BF80B586B05E
:100540000590ADF81210ADF810208DF80F3048F27C
:100550007810C0F60000806B8047BDF8121040F2A2
:100560000400C2F2000001800599028840F2680090
:10057000C2F2000006F072FE9DF8100040F2B121B8
:10058000C2F20001009108709DF80F0040F2B821FE
:10059000C2F200010191087048F21430C0F6000068
:1005A00007F016F90099019891F9001090F90020D0
:1005B00048F25A30C0F6000007F00AF90020029015
:1005C000FFE7029840F20401C2F200010988884264
:1005D00011DAFFE7029940F26800C2F20000415CC4
:1005E00048F26B30C0F6000007F0F2F8FFE702981F
:1005F00001300290E5E748F25830C0F6000007F0FD
:10060000E7F848F27810C0F60000C16B4FF47A703A
:10061000884706B080BD00BF80B548F27810C0F6AC
:100620000000406B804740F2B921C2F20001052072
:10063000087080BD80B548F27810C0F60000C16B2C
:100640004FF47A70884740F2B921C2F200010220CB
:10065000087080BD80B548F27810C0F60000C16B0C
:100660004FF47A70884740F2B921C2F200010320AA
:10067000087080BD80B582B08DF8070048F26F30F9
:10068000C0F6000007F0A4F89DF80700C007B8B155
:10069000FFE748F2C520C0F6000007F099F848F2DD
:1006A000EC10C0F6000007F093F840F2B921C2F256
:1006B0000001002008704FF4006006F0E1F90BE043
:1006C00048F2AA20C0F6000007F082F8FFE74FF4D6
:1006D000006006F0D5F9FFE702B080BD80B582B0BA
:1006E00048F20020C0F6000007F072F848F27810D7
:1006F000C0F60000806B804700200190FFE7019862
:100700001D280DDCFFE7019A02F1410040F268016B
:10071000C2F200018854FFE7019801300190EEE732
:1007200040F20400C2F200001421018048F2781166
:10073000C0F600010A6B017840F26800C2F20000C6
:10074000904702B080BD00BF80B582B048F2002063
:10075000C0F6000007F03CF848F27810C0F6000040
:10076000806B804700200190FFE701981D280DDC79
:10077000FFE7019A02F1410040F26801C2F2000174
:100780008854FFE7019801300190EEE740F2040041
:10079000C2F200000F21018048F27811C0F600017A
:1007A0000A6B017840F26800C2F20000904702B084
:1007B00080BD00BF80B548F27E30C0F6000007F073
:1007C00007F880BD80B54FF4617000F087F848F2FB
:1007D0007810C0F60000006C804780BD80B582B004
:1007E000019000919DF8041044F20040C4F2000012
:1007F00003F06CF8FFE744F20040C4F20000072168
:1008000003F010FA08B9FFE7F5E7019802B080BDE0
:1008100080B540F26000C2F20000006844F6D35197
:10082000C1F26201A0FB0110800900F00BF810B1C9
:10083000FFE7FFE7FEE74FF0FF30002100F02CF864
:1008400080BD00BF80B582B0009000980138B0F143
:10085000807F03D3FFE70120019019E00098013861
:100860004EF21401CEF2000108604FF0FF300F216C
:1008700000F012F84EF21801CEF2000100200860DC
:100880004EF21002CEF20002072111600190FFE744
:10089000019802B080BD00BF82B08DF807000091C2
:1008A0009DF90700B0F1FF3F0CDCFFE70098000165
:1008B0009DF8071001F00F014EF61452CEF200021F
:1008C000885409E0009800019DF907104EF200429B
:1008D000CEF200028854FFE702B0704781B000906A
:1008E000009840F2C021C2F200010860FFE740F228
:1008F000C020C2F20000006808B1FFE7F7E701B0CE
:10090000704700BF40F2C020C2F20000006840B152
:10091000FFE740F2C021C2F2000108680138086018
:10092000FFE7704780B582B041F20001C4F20201D6
:10093000086840F001000860FFE741F20000C4F2DF
:10094000020000688007002801D4FFE7F5E7FFE711
:1009500041F20401C4F20201086840F0800008601E
:1009600000200190FFE701984F2805D8FFE7FFE737
:10097000019801300190F6E741F20401C4F202014E
:10098000086840F09000086000200190FFE701989F
:100990004F2805D8FFE7FFE7019801300190F6E7FF
:1009A000FFE741F20401C4F20201086820F00300ED
:1009B000086041F20002C4F2020210684FF6FF73B1
:1009C000CFF6F6631840106041F20803C4F2020348
:1009D0004FF41F001860106820F480201060002081
:1009E000086041F22C01C4F20201086000F002F834
:1009F00002B080BD80B500F0CFF880BD8DB040F270
:100A00000670C0F60810049040F20120C0F20340C6
:100A1000039000200290019041F20400C4F2020011
:100A20000068C0F381000C900C98009040B1FFE783
:100A3000009801280ED0FFE70098022814D08BE020
:100A400040F26001C2F2000141F20020C0F27A00DF
:100A500008608BE040F26001C2F2000141F2002028
:100A6000C0F27A00086081E041F20400C4F20200A2
:100A7000006800F480300B900B98B0F5803F29D1CE
:100A8000FFE741F22C00C4F20200006800F0804051
:100A90000A900A9830B9FFE741F20020C0F27A00CC
:100AA000079005E046F60040C0F2DC200790FFE723
:100AB00041F20400C4F20200006800F40030099022
:100AC0000998B0F5003F04D1FFE707984008079068
:100AD000FFE705E040F60010C0F23D000790FFE799
:100AE00041F20400C4F202000168C1F3834108919D
:100AF00000680001002805D5FFE7089840F01000C5
:100B00000890FFE741F20400C4F2020000684000D0
:100B1000002805D5FFE7089840F020000890FFE77F
:100B200008980F2804D3FFE708980130089003E0E5
:100B3000089802300890FFE708983E2803D3FFE7A3
:100B40003F200890FFE707980899484340F260016A
:100B5000C2F20001086009E040F26001C2F2000147
:100B600041F20020C0F27A000860FFE741F2040081
:100B7000C4F202000068C0B200090690069901A8FC
:100B8000405C059040F26001C2F200010868059ADD
:100B9000D04008600DB0704784B0002003900290F0
:100BA00041F20001C4F20201086840F4803008609C
:100BB000FFE703980130039041F20000C4F2020005
:100BC000006800F400300290FFE7029900200190D5
:100BD00041B9FFE703984FF6FF71401A18BF012093
:100BE0000190FFE70198C0070028E2D1FFE741F23A
:100BF0000000C4F2020000688003002802D4FFE76E
:100C0000FFE7FEE741F21C01C4F20201086840F070
:100C10008050086047F20001C4F20001086840F407
:100C20004040086041F20401C4F2020100910868EA
:100C3000086008680860086840F480600860086818
:100C400020F440300860086840F4403008600868CC
:100C50004FF6FF72CBF2C3721040086008680022A2
:100C6000C0F634021043086041F20001C4F20201F0
:100C7000086840F080700860FFE741F20000C4F2AD
:100C8000020000688001002801D4FFE7F5E747F281
:100C90000001C4F20001086840F480300860FFE7FA
:100CA00047F20400C4F200000068C003002801D429
:100CB000FFE7F5E747F20001C4F20001086840F4DD
:100CC00000300860FFE747F20400C4F2000000684B
:100CD0008003002801D4FFE7F5E741F20401C4F2E4
:100CE0000201086820F003000860086840F0020074
:100CF0000860FFE741F20400C4F202000068000748
:100D0000002801D4FFE7F5E704B0704780B501F093
:100D100003FC01F00BFC80BD81B08DF80300ADF841
:100D200000109DF803000B2810DBFFE79DF803007F
:100D30002A280BDCFFE7BDF800009DF8032046F6EB
:100D40001441C4F2000121F8220016E09DF80300CE
:100D5000012810DBFFE79DF803000A280BDCFFE702
:100D6000BDF800009DF8032046F60041C4F20001E2
:100D700021F8220000E0FFE7FFE701B0704700BF65
:100D800081B08DF803000020ADF800009DF803004D
:100D90000B2810DBFFE79DF803002A280BDCFFE798
:100DA0009DF8031046F61440C4F2000030F821000C
:100DB000ADF8000016E09DF80300012810DBFFE706
:100DC0009DF803000A280BDCFFE79DF8031046F6A8
:100DD0000040C4F2000030F82100ADF8000000E04F
:100DE000FFE7FFE7BDF8000001B0704746F62C4171
:100DF000C4F20001088840F080000880704700BFFE
:100E000046F62C41C4F20001088820F080000880DA
:100E1000704700BF46F62C41C4F20001088840F438
:100E200080700880704700BF46F62C41C4F2000174
:100E3000088820F480700880704700BF81B0ADF84A
:100E400002000020ADF8000046F62C41C4F200017B
:100E50000888ADF80000BDF8000020F40070ADF87F
:100E60000000BDF80220BDF800001043ADF80000FE
:100E7000BDF80000088001B0704700BF81B0ADF838
:100E800002000020ADF8000046F62C41C4F200013B
:100E90000888ADF80000BDF8000020F48040ADF8EF
:100EA0000000BDF80220BDF800001043ADF80000BE
:100EB000BDF80000088001B0704700BF81B0ADF8F8
:100EC00002000020ADF8000046F62C41C4F20001FB
:100ED0000888ADF80000BDF800006FF3DF30ADF812
:100EE0000000BDF80220BDF800001043ADF800007E
:100EF000BDF80000088001B0704700BF81B08DF8D8
:100F0000030046F62C41C4F200010888ADF8000049
:100F1000BDF8000020F07F00ADF800009DF8030050
:100F200000F07F02BDF800001043ADF80000BDF8EE
:100F30000000088001B0704746F63041C4F200015D
:100F4000088840F001000880704700BF46F6304135
:100F5000C4F20001088820F001000880704700BF3B
:100F600081B0ADF802000020ADF8000046F6304137
:100F7000C4F200010888ADF80000BDF8000020F0C0
:100F80000200ADF80000BDF80220BDF800001043DB
:100F9000ADF80000BDF80000088001B0704700BF48
:100FA00046F63441C4F20001088840F0040008808D
:100FB000704700BF46F63441C4F20001088820F0B3
:100FC00004000880704700BF81B0ADF8000046F60D
:100FD0003440C4F200000088BDF80010084000044E
:100FE00020B1FFE701208DF8030003E000208DF819
:100FF0000300FFE79DF8030001B0704781B0ADF832
:1010000002009DF8032046F63441C4F2000108882E
:101010001043088001B0704781B0ADF8000046F67B
:101020003440C4F200000088BDF8001008400004FD
:1010300020B1FFE701208DF8030003E000208DF8C8
:101040000300FFE79DF8030001B0704781B0ADF8E1
:1010500002009DF8032046F63441C4F200010888DE
:101060001043088001B0704740F20041C4F2010112
:101070000020086040F20441C4F20101086040F21F
:101080000841C4F20101086040F20C41C4F20101C0
:10109000086040F21041C4F201010860704700BFCF
:1010A00084B003908DF80B108DF80A20039A40F25B
:1010B0000041C4F20101086890430860039A40F2BD
:1010C0000441C4F20101086890430860039A40F2A9
:1010D0000841C4F20101086890430860039A40F295
:1010E0000C41C4F201010868904308609DF80B00B0
:1010F0000146019120B1FFE70198012809D011E0D4
:10110000039A40F20041C4F20101086810430860EC
:1011100009E0039A40F20441C4F201010868104357
:10112000086000E0FFE79DF80A00014600910328EF
:1011300038D80099DFE801F002132435039A40F211
:101140000841C4F20101086810430860039A40F2A4
:101150000C41C4F2010108689043086023E0039A3F
:1011600040F20841C4F20101086890430860039A04
:1011700040F20C41C4F2010108681043086012E01B
:10118000039A40F20841C4F2010108681043086064
:10119000039A40F20C41C4F2010108681043086050
:1011A00001E0FFE7FFE704B0704700BF81B00090A7
:1011B000009A40F20041C4F201010868104308603F
:1011C00001B0704781B00090009A40F20041C4F233
:1011D000010108689043086001B0704781B0009039
:1011E000009A40F20441C4F201010868104308600B
:1011F00001B0704781B00090009A40F20441C4F2FF
:10120000010108689043086001B0704781B0009008
:10121000009A40F21041C4F20101086810430860CE
:1012200001B0704781B00090009A40F21041C4F2C2
:10123000010108689043086001B0704782B00090D7
:1012400040F21440C4F2010000680099084204D042
:10125000FFE701208DF8070003E000208DF807006C
:10126000FFE79DF8070002B0704700BF81B0009013
:10127000009840F21441C4F20101086001B07047C7
:1012800082B0009040F21440C4F20100006800995E
:10129000084204D0FFE701208DF8070003E000209A
:1012A0008DF80700FFE79DF8070002B0704700BF08
:1012B00081B00090009840F21441C4F2010108602E
:1012C00001B0704743F20001C4F2000145F25550ED
:1012D0000860704743F20001C4F20001002008607A
:1012E000704700BF43F20001C4F200014CF6CC404D
:1012F0000860704784B0ADF80C004FF6FF70C0F284
:101300000F0002900020019043F20001C4F200019E
:1013100045F255500860FFE743F20C00C4F20000AC
:10132000006800F001000190FFE70298411E029161
:101330000020009031B1FFE70198002818BF01207C
:101340000090FFE70098C0070028E5D1FFE701986B
:1013500020B1FFE700208DF80F000AE0BDF80C0077
:1013600043F20401C4F20001086001208DF80F006F
:10137000FFE79DF80F0004B0704700BF84B0ADF8E0
:101380000C004FF6FF70C0F20F0002900020019099
:1013900043F20001C4F2000145F255500860FFE736
:1013A00043F20C00C4F20000006800F0020001905B
:1013B000FFE70298411E02910020009031B1FFE743
:1013C0000198002818BF01200090FFE70098C0078F
:1013D0000028E5D1FFE7019820B1FFE700208DF854
:1013E0000F000CE0BDF80C006FF31F3043F2080152
:1013F000C4F20001086001208DF80F00FFE79DF89E
:101400000F0004B0704700BF43F20001C4F20001B6
:101410004AF6AA200860704786B0ADF814008DF82F
:1014200013104FF6FF70C0F20F00039000200290DF
:1014300043F20001C4F2000145F255500860FFE795
:1014400043F20C00C4F20000006800F001000290BA
:10145000FFE70398411E03910020019031B1FFE79F
:101460000298002818BF01200190FFE70198C007EB
:101470000028E5D1FFE7029820B1FFE700208DF8B2
:10148000170042E09DF8130043F20401C4F200018A
:1014900008604FF6FF70C0F20F000390FFE743F2C1
:1014A0000C00C4F20000006800F002000290FFE7A8
:1014B0000398411E03910020009031B1FFE702988C
:1014C000002818BF01200090FFE70098C0070028FF
:1014D000E5D1FFE7029820B1FFE700208DF8170063
:1014E00013E0BDF814006FF31F3043F20801C4F29B
:1014F0000001086043F20001C4F200014AF6AA208C
:10150000086001208DF81700FFE79DF8170006B06E
:10151000704700BF81B0ADF8000043F20C00C4F288
:1015200000000068BDF80010084204D0FFE7012069
:101530008DF8030003E000208DF80300FFE79DF81D
:10154000030001B07047000080B58AB00990099887
:10155000089040F60001C4F20101884230D0FFE754
:10156000089840F60041C4F20101884231D0FFE7FB
:10157000089841F20001C4F20101884232D0FFE72D
:10158000089841F20041C4F20101884233D0FFE7DC
:10159000089841F60001C4F20101884234D0FFE707
:1015A000089841F60041C4F20101884235D0FFE7B6
:1015B000089842F20001C4F20101884236D03EE0B0
:1015C00040F20230079000F07FFF079800F090FF94
:1015D00036E040F20330069000F076FF069800F007
:1015E00087FF2DE04FF44170059000F06DFF0598E6
:1015F00000F07EFF24E040F20530049000F064FF2C
:10160000049800F075FF1BE040F20630039000F0F4
:101610005BFF039800F06CFF12E040F2073002908D
:1016200000F052FF029800F063FF09E04FF44270AF
:10163000019000F049FF019800F05AFF00E0FFE739
:101640000AB080BD80B582B04FF44070019000F0C8
:101650003BFF019800F04CFF02B080BD87B00690C0
:10166000059104920393002001900090059800F0EA
:101670000F0001909DF81400C006002814D5FFE764
:10168000049804280AD1FFE7019840F00300019074
:10169000039A0699C86B1043C86304E00499019843
:1016A00008430190FFE7FFE70020ADF80A00FFE7DD
:1016B000BDF80A00072842D8FFE7BDF80A100398D2
:1016C000C840C007A0B3FFE7069800680090BDF8C7
:1016D0000A0081000F2000FA01F100988843009071
:1016E0000198BDF80A10890000FA01F1009808433A
:1016F00000900598282809D1FFE7BDF80A100120BD
:10170000884003990840069948610DE005984828EB
:1017100009D1FFE7BDF80A1001208840039908406D
:1017200006990861FFE7FFE7009806990860FFE760
:10173000FFE7BDF80A000130ADF80A00B8E708205D
:10174000ADF80A00FFE7BDF80A000F2846D8FFE70A
:10175000BDF80A100398C840C007C0B3FFE7069859
:1017600040680090BDF80A006FF01F0101EB800295
:101770000F2000FA02F20098904300900198BDF803
:101780000A2001EB820100FA01F100980843009061
:101790000598282809D1FFE7BDF80A1001208840E4
:1017A00003990840069948610DE00598482809D139
:1017B000FFE7BDF80A100120884003990840069908
:1017C0000861FFE7FFE7009806994860FFE7FFE739
:1017D000BDF80A000130ADF80A00B4E707B0704761
:1017E00082B00190009100980199086102B07047A1
:1017F00082B00190009100980199486102B0704751
:1018000083B0029001918DF803209DF8030020B170
:10181000FFE701980299086103E001980299486185
:10182000FFE703B0704700BF82B00190ADF802102F
:10183000BDF802000199C86002B0704783B0019002
:101840000091019880680099084204D0FFE70120C8
:101850008DF80B0003E000208DF80B00FFE79DF8EA
:101860000B0003B0704700BF81B000900098806803
:1018700080B201B0704700BF83B001900091019821
:10188000C0680099084204D0FFE701208DF80B00E2
:1018900003E000208DF80B00FFE79DF80B0003B07C
:1018A000704700BF81B000900098C06880B201B05E
:1018B000704700BF86B005908DF81310002003908C
:1018C0000290019000909DF817000006002806D5B0
:1018D000FFE71C20C4F201000068019005E004202D
:1018E000C4F2010000680190FFE70598C0F30340CF
:1018F0000090BDF814000390059800F44010B0F576
:10190000401F0CD1FFE7019820F0E0600190042116
:10191000C4F20101086820F0E060086023E09DF84F
:101920001600C00600280DD5FFE700990320884067
:1019300002900299019888430190019840F0E0607C
:1019400001900FE00398059A6FF00F0101EA5241F0
:1019500000FA01F1019888430190019840F0E0609D
:101960000190FFE7FFE79DF8130060B1FFE70398E0
:10197000059A6FF00F0101EA524100FA01F1019856
:1019800008430190FFE79DF817000006002806D5E0
:10199000FFE701981C21C4F20101086005E00198ED
:1019A0000421C4F201010860FFE706B0704700BFE0
:1019B00082B08DF807008DF80610002000909DF889
:1019C000060000F0030081000F20884000909DF881
:1019D0000600032814DCFFE7009A0821C4F2010185
:1019E0000868904308609DF807009DF8062002F003
:1019F0000302920000FA02F208681043086047E010
:101A00009DF80600072814DCFFE7009A0C21C4F2B9
:101A100001010868904308609DF807009DF80620C2
:101A200002F00302920000FA02F208681043086014
:101A30002DE09DF806000B2814DCFFE7009A10212A
:101A4000C4F201010868904308609DF807009DF802
:101A5000062002F00302920000FA02F20868104326
:101A6000086013E0009A1421C4F201010868904351
:101A700008609DF807009DF8062002F0030292001E
:101A800000FA02F2086810430860FFE7FFE7FFE78B
:101A900002B0704782B08DF807008DF80610002064
:101AA00000900021C4F2010108680090009820F025
:101AB0007F0000909DF80720009840EA02100090F7
:101AC0009DF806200098104300900098086002B02E
:101AD000704700BF0021C4F20101086840F0800097
:101AE000086070470021C4F20101086820F08000FE
:101AF0000860704783B0029001914FF480300090ED
:101B00000199009808430090009802998861019813
:101B10000299886100980299886102988069009012
:101B200002988069009003B0704700BF82B00190B6
:101B30002021C4F2010108680090009820F0010003
:101B400000900098019A1043086002B0704700BFEF
:101B500081B02020C4F201000068C005002804D52F
:101B6000FFE701208DF8030003E000208DF803005B
:101B7000FFE79DF8030001B07047000081B00090BE
:101B800000980021C0F2FA5108434EF60C51CEF2F3
:101B90000001086001B0704780B584B08DF80F0077
:101BA0008DF80E108DF80D2000200290019000900D
:101BB0004EF60C50CEF20000006800F4E060B0F584
:101BC000E06F05D1FFE700200190042000904AE07B
:101BD0004EF60C50CEF20000006800F4E060B0F564
:101BE000C06F05D1FFE7012001900320009039E08C
:101BF0004EF60C50CEF20000006800F4E060B0F544
:101C0000A06F04D1FFE702200190009029E04EF67A
:101C10000C50CEF20000006800F4E060B0F5806F78
:101C200005D1FFE7032001900120009018E04EF657
:101C30000C50CEF20000006800F4E060B0F5407F88
:101C400005D1FFE7042001900020009007E04FF449
:101C5000A060FFF793FF022001900090FFE7FFE7ED
:101C6000FFE7FFE7FFE79DF80E000199C1F10401CE
:101C7000884002909DF80D000099C1F104020F21E7
:101C8000D14001400298084302900298000102905E
:101C900002989DF80F104EF20042CEF200028854D6
:101CA0009DF80F2002F01F01012088404EF2001124
:101CB000CEF2000141EAD20121F00301086004B034
:101CC00080BD00BF81B08DF803009DF8032002F0B5
:101CD0001F01012088404EF28011CEF2000141EA3E
:101CE000D20121F00301086001B0704782B0019079
:101CF0000091019800994FF68072C1F6FF72114071
:101D000008434EF60851CEF200010860BFF34F8F32
:101D100002B0704781B08DF803009DF803204EF6A5
:101D20001051CEF2000108681043086001B07047FE
:101D300081B08DF803009DF803204EF61051CEF2CD
:101D4000000108689043086001B0704781B00090BE
:101D50000098042809D1FFE74EF21001CEF20001ED
:101D6000086840F00400086008E04EF21001CEF26E
:101D70000001086820F004000860FFE701B0704728
:101D800080B582B040F21C40019000F09DFB0198AC
:101D900000F0AEFB02B080BD81B0009047F20001C0
:101DA000C4F20001086820F010000860086820F004
:101DB000E0000860009A086810430860086840F076
:101DC0001000086001B0704781B0009047F2000138
:101DD000C4F20001086820F440400860009A0868D6
:101DE0001043086001B0704747F20001C4F20001DF
:101DF000086820F010000860704700BF80B582B00E
:101E00000190FFE74FF4803000F012F8012801D074
:101E1000FFE7F7E747F20001C4F20001086820F489
:101E200000300860019A08681043086002B080BD65
:101E300082B0009047F20400C4F2000000680099EC
:101E4000084204D0FFE701208DF8070003E00020DE
:101E50008DF80700FFE79DF8070002B0704700BF4C
:101E600047F20001C4F20001086840F480300860C5
:101E7000704700BF47F20001C4F20001086820F477
:101E800080300860704700BF47F20001C4F20001D3
:101E9000086840F440200860704700BF47F2000126
:101EA000C4F20001086820F440200860704700BFB9
:101EB00081B0009047F20001C4F20001086820F4EC
:101EC00080600860009A08681043086001B070479D
:101ED00081B0009047F20001C4F20001086820F4CC
:101EE00000600860009A08681043086001B07047FD
:101EF00081B08DF803004EF61051CEF20001086853
:101F000020F0040008609DF8030010B9FFE730BF1F
:101F100001E020BFFFE701B0704700BF83B002902F
:101F200001918DF8032047F20001C4F20001086816
:101F30004FF2FC32CFF6F37210400860029A086844
:101F4000104308600198B0F5402F1CD1FFE70298BC
:101F500060B9FFE747F20001C4F20001086840F6EB
:101F60000002C0F20C02104308600BE047F20001CF
:101F7000C4F20001086840F20042C0F20C021043B3
:101F80000860FFE7FFE74EF61051CEF20001086847
:101F900040F0040008604EF21001CEF20001086823
:101FA00040F2C822C2F2000210604EF20010CEF2DF
:101FB0000000006850604EF20410CEF2000000688D
:101FC00090604EF20810CEF200000068D060086801
:101FD0000422C0F20102104008604EF28011CEF2DD
:101FE00000014FF63D00CFF67F7008604EF284117D
:101FF000CEF200016FF4E06008604EF28811CEF27C
:1020000000014FF0FF3008609DF8030010B9FFE7B2
:1020100030BF03E040BF20BF20BFFFE740F2C82031
:10202000C2F2000001684EF21002CEF2000211600E
:1020300041684EF20012CEF20002116081684EF249
:102040000412CEF200021160C0684EF20811CEF206
:10205000000108604EF61051CEF20001086820F031
:102060000400086003B0704747F20001C4F20001A9
:10207000086840F002000860086840F0040008604A
:102080004EF61051CEF20001086840F004000860DE
:102090004EF21001CEF2000108680422C0F20102E3
:1020A000104008604EF28011CEF200016FF008007F
:1020B00008604EF28411CEF200016FF400700860E7
:1020C0004EF28811CEF200014FF0FF30086030BFB1
:1020D000704700BF47F20001C4F20001086840F4F5
:1020E00080700860704700BF47F20001C4F2000131
:1020F000086820F480700860704700BF47F2040150
:10210000C4F20001086840F480700860704700BFA6
:1021100047F20401C4F20001086820F480700860EE
:10212000704700BF82B001900198009020B1FFE796
:102130000098012809D011E047F20001C4F2000123
:10214000086840F00400086009E047F20001C4F2AA
:102150000001086840F00800086000E0FFE702B0F6
:102160007047000080B582B041F20001C4F2020164
:102170000191086840F001000860002000F034F888
:10218000019941F20403C4F20203186820F003002D
:10219000186008684FF6FF72CFF6F66210400860CC
:1021A000086820F480200860186840F20C0CC2F225
:1021B000000C00EA0C00186008681040086008680D
:1021C00020F48020086041F20801C4F202014FF4BB
:1021D0001F00086041F22C01C4F20201086820F0DF
:1021E000C040086002B080BD80B58AB0ADF826005E
:1021F000002008908DF81F008DF81E00BDF8260005
:1022000001460691002868D0FFE70698102816D0EE
:10221000FFE70698182800F0D980FFE70698B0F588
:10222000006F32D0FFE70698B0F5106F00F0A48081
:10223000FFE7069843F21001884273D0EEE0FFE713
:102240009DF81E100020059041B9FFE708984FF651
:10225000FF71401A18BF01200590FFE70598C007DD
:1022600048B1FFE7112000F0C1FA8DF81E00089870
:1022700001300890E4E7112000F0B8FA20B1FFE740
:1022800001208DF81F00FFE7C9E0FFE79DF81E1051
:102290000020049041B9FFE708986FF07C41401A94
:1022A00018BF01200490FFE70498C00750B1FFE772
:1022B00040F6010000F09AFA8DF81E0008980130EF
:1022C0000890E3E740F6010000F090FA20B1FFE744
:1022D00001208DF81F00FFE7A1E0FFE79DF81E1029
:1022E0000020039039B9FFE70898B0F5A06018BF47
:1022F00001200390FFE70398C00748B1FFE70120E2
:1023000000F074FA8DF81E00089801300890E5E797
:10231000012000F06BFA20B1FFE701208DF81F00CB
:10232000FFE77CE0FFE79DF81E100020029051B906
:10233000FFE708984FF6FF71C0F20F01401A18BF6F
:1023400001200290FFE70298C00750B1FFE743F277
:10235000110000F04BFA8DF81E000898013008902B
:10236000E1E743F2110000F041FA20B1FFE701205C
:102370008DF81F00FFE752E0FFE79DF81E100020D8
:10238000019051B9FFE708984FF6FF71C0F20F01B5
:10239000401A18BF01200190FFE70198C00750B113
:1023A000FFE740F6011000F021FA8DF81E000898B2
:1023B00001300890E1E740F6011000F017FA20B173
:1023C000FFE701208DF81F00FFE728E0FFE79DF8F9
:1023D0001E100020009051B9FFE708984FF6FF71DA
:1023E000C0F20F01401A18BF01200090FFE70098CB
:1023F000C00748B1FFE7192000F0F8F98DF81E007A
:10240000089801300890E2E7192000F0EFF920B1B8
:10241000FFE701208DF81F00FFE700E0FFE79DF8D0
:102420001F000AB080BD00BF81B0ADF80200BDF84A
:10243000020000F01F02012101FA02F3810941F2BA
:102440000002C4F2020288581843885001B0704755
:1024500081B0ADF80200BDF8020000F01F020121BA
:1024600001FA02F3810941F20002C4F20202885823
:102470009843885001B0704781B0ADF80200BDF8B4
:10248000020000F01F02012101FA02F3810941F26A
:102490000002C4F2020288581843885001B0704705
:1024A00081B0ADF80200BDF8020000F01F0201216A
:1024B00001FA02F3810941F20002C4F202028858D3
:1024C0009843885001B0704781B0ADF80200BDF864
:1024D000020000F01F02012101FA02F3810941F21A
:1024E0000002C4F2020288581843885001B07047B5
:1024F00081B0ADF80200BDF8020000F01F0201211A
:1025000001FA02F3810941F20002C4F20202885882
:102510009843885001B0704741F22001C4F2020193
:10252000086840F480300860704700BF41F2200125
:10253000C4F20201086820F480300860704700BFD0
:1025400082B0019041F20401C4F2020108680090D7
:10255000009820F0030000900098019A1043086052
:1025600002B0704741F20400C4F20200006800F0BB
:102570000C00704782B0019041F20401C4F20201E4
:1025800008680090009820F0F00000900098019AF0
:102590001043086002B0704782B0019041F204011C
:1025A000C4F2020108680090009820F4E0600090F6
:1025B0000098019A1043086002B0704782B0019001
:1025C00041F20401C4F2020108680090009820F46E
:1025D000605000900098019A1043086002B0704764
:1025E00082B0019041F20401C4F202010868009037
:1025F000009820F0E06000900098019A1043086075
:1026000002B0704783B0029001910020009041F227
:102610000401C4F202010868009000984FF6FF72AE
:10262000CBF2C272104000900298019A02430098C7
:10263000104300900098086003B0704782B001908A
:102640000020009041F22C01C4F2020108680090C1
:10265000009820F080400090019A0098104300906C
:102660000098086002B0704782B00190002000908E
:1026700041F20400C4F2020000680090009820F4C7
:10268000003000900198012805D1FFE7009840F440
:1026900000300090FFE7009841F20401C4F202010B
:1026A000086002B0704700BF84B0039041F204009C
:1026B000C4F2020000680290029843F6FF71CEF661
:1026C000FF710840029041F22C00C4F20200006841
:1026D0000190019820F00050019003980090042888
:1026E0000DD3FFE7009805280FD0FFE700980728D3
:1026F0000BD0FFE700980838042812D31FE0039995
:10270000029840EA813002901AE0039820F0040019
:1027100003900399029840EA813040F08050029083
:102720000EE0039820F00C0003900399029840EA11
:1027300081300290019840F00050019000E0FFE7E6
:10274000029841F20401C4F202010860019841F2CA
:102750002C01C4F20201086004B0704782B00190FD
:1027600041F20401C4F2020108680090009820F4CC
:10277000400000900098019A1043086002B0704732
:1027800082B0019041F22001C4F202010868009079
:10279000009820F4407000900098019A104308605F
:1027A00002B0704782B0019041F2C001C4F2020150
:1027B00008680090009820F0010000900098019AAD
:1027C0001043086002B0704782B0019041F22001CE
:1027D000C4F2020108680090009820F018000090F0
:1027E0000098019A1043086002B0704781B0ADF8BC
:1027F0000000BDF80000800941F20001C4F20201AE
:102800004058BDF8001001F01F01C840C00720B1BA
:10281000FFE701208DF8030003E000208DF803009E
:10282000FFE79DF8030001B0704700BF81B0ADF82D
:102830000200BDF8020000F01F02012101FA02F3BC
:10284000810941F20002C4F20202885818438850FC
:1028500001B0704781B0ADF80200BDF8020000F091
:102860001F02012101FA02F3810941F20002C4F2C0
:10287000020288589843885001B0704783B0ADF881
:102880000A00BDF80A0001460091B0B3FFE70098C6
:10289000102814D0FFE7009818282ED0FFE70098E2
:1028A000B0F5006F1AD0FFE70098B0F5106F24D094
:1028B000FFE7009843F2100188421ED01EE041F26B
:1028C0000001C4F2020108680190086820F4803019
:1028D0000860019840F48020086010E041F2200177
:1028E000C4F2020108680190086820F00100086045
:1028F000019840F00400086001E000E0FFE703B049
:10290000704700BF83B0ADF80A00BDF80A00014669
:102910000091B0B3FFE70098102814D0FFE70098AB
:1029200018282ED0FFE70098B0F5006F1AD0FFE707
:102930000098B0F5106F24D0FFE7009843F2100123
:1029400088421ED01EE041F20001C4F20201086874
:102950000190086820F480300860019820F48020FD
:10296000086010E041F22001C4F202010868019001
:10297000086820F001000860019820F00400086059
:1029800001E000E0FFE703B0704700BF82B00190B4
:1029900041F20001C4F2020108680090009820F0A2
:1029A000F80000900098019A02F01F0240EAC2006D
:1029B000086002B0704700BF41F20001C4F202019A
:1029C000086840F400200860704700BF41F2000131
:1029D000C4F20201086820F400200860704700BFBC
:1029E00081B00090009800F007000090009841F23C
:1029F0003401C4F20201086001B0704798B08DF84C
:102A00005F000020159040F20671C0F60811099190
:102A100040F20121C0F20341089107900690059110
:102A200004900391029041F20400C4F20200006895
:102A3000C0F3810016901698019040B1FFE701980D
:102A400001280AD0FFE7019802280CD084E041F267
:102A50000020C0F27A00149084E041F20020C0F21D
:102A60007A0014907EE041F20400C4F20200006893
:102A700000F4803010901098B0F5803F29D1FFE726
:102A800041F22C00C4F20200006800F080400F9078
:102A90000F9830B9FFE741F20020C0F27A000C90A5
:102AA00005E046F60040C0F2DC200C90FFE741F262
:102AB0000400C4F20200006800F400300E900E988A
:102AC000B0F5003F04D1FFE70C9840080C90FFE7F9
:102AD00005E040F60010C0F23D000C90FFE741F227
:102AE0000400C4F202000168C1F383410D91006843
:102AF0000001002805D5FFE70D9840F010000D906B
:102B0000FFE741F20400C4F2020000684000002820
:102B100005D5FFE70D9840F020000D90FFE70D98D8
:102B20000E2804D8FFE70D9802300D900FE00D98A5
:102B30000F2808D3FFE70D983E2804D8FFE70D982B
:102B400001300D9002E03F200D90FFE7FFE70C9869
:102B50000D994843149005E041F20020C0F27A003C
:102B60001490FFE741F20400C4F202000168C9B208
:102B700009090B910B9A06A9895C0A9114990A9A82
:102B8000D14013910168C1F302210B910B9A04A962
:102B9000895C0A9113990A9AD14012910068C0F396
:102BA000C2200B900B9902A8405C0A9013980A99D6
:102BB000C84011909DF85F0001460091032810D88D
:102BC0000099DFE801F00205080B1498159009E060
:102BD0001398159006E01298159003E0119815903F
:102BE00000E0FFE7159818B0704700BF41F22401DC
:102BF000C4F20201086840F080700860704700BFAE
:102C000081B0ADF80000BDF80000800941F200017C
:102C1000C4F202014058BDF8001001F01F01C84085
:102C2000C00720B1FFE701208DF8030003E000207A
:102C30008DF80300FFE79DF8030001B0704700BF67
:102C400081B0ADF80200BDF8020000F01F020121C2
:102C500001FA02F3810941F20002C4F2020288582B
:102C60001843885001B0704781B0ADF80200BDF83C
:102C7000020000F01F02012101FA02F3810941F272
:102C80000002C4F2020288581843885001B070470D
:102C900081B0ADF80200BDF8020000F01F02012172
:102CA00001FA02F3810941F20002C4F202028858DB
:102CB0009843885001B0704781B00090009A42F666
:102CC0000001C4F2000108681043086001B07047B9
:102CD00081B00090009A42F60001C4F20001086839
:102CE0009043086001B0704742F60401C4F200014D
:102CF000086840F010000860704700BF42F6040109
:102D0000C4F20001086820F010000860704700BF9E
:102D1000FFE742F60400C4F20000006880060028C5
:102D200001D4FFE7F5E7704742F60401C4F2000161
:102D3000086820F008000860FFE742F60400C4F2CB
:102D4000000000680007002801D4FFE7F5E770479E
:102D500081B00020009042F61C00C4F20000006820
:102D6000009042F61800C4F200000168009840EAA2
:102D700001400090009801B0704700BF80B582B05C
:102D80000190FFF7B1FFBDF8060042F61801C4F24A
:102D900000010860BDF8040042F61C01C4F2000105
:102DA0000860FFF7ABFF02B080BD00BF80B582B006
:102DB0000190FFF799FF0198C0F3034042F6080124
:102DC000C4F200010860BDF8040042F60C01C4F230
:102DD00000010860FFF792FF02B080BD80B582B0AD
:102DE0000190FFF781FFBDF8060042F62001C4F212
:102DF00000010860BDF8040042F62401C4F200019D
:102E00000860FFF77BFF02B080BD00BF81B00020EB
:102E1000009042F61000C4F20000006800F00F00BD
:102E20000004009042F61400C4F20000016800980B
:102E300008430090009801B0704700BF82B0009036
:102E400042F60400C4F2000000680099084204D071
:102E5000FFE701208DF8070003E000208DF8070050
:102E6000FFE79DF8070002B0704700BF81B00090F7
:102E7000009A42F60401C4F2000108689043086019
:102E800001B0704780B586B005900598049043F670
:102E90000001C4F20001884219D0FFE7049843F60C
:102EA0000041C4F2000188421AD0FFE7049843F2BF
:102EB0000001C4F2010188421BD1FFE74FF44370C7
:102EC0000390FFF701FB0398FFF712FB12E040F2BB
:102ED0000E400290FFF7F8FA0298FFF709FB09E0AD
:102EE00040F20F400190FFF7EFFA0198FFF700FB67
:102EF00000E0FFE706B080BD81B00090009900209F
:102F0000086000994860009988600099C86000993D
:102F10004861009988610099086101B0704700BF5D
:102F200083B0029001910020009002980068009008
:102F3000009800F4415000900198016800980843FF
:102F400000900198416800980843009001988168BA
:102F50000098084300900198C168009808430090C9
:102F60000198016900980843009001984169009810
:102F700008430090019881690098084300900098E8
:102F8000029908600299C86920F40060C86103B022
:102F9000704700BF81B000900099086840F0400081
:102FA000086001B0704700BF81B0009000990868C8
:102FB00020F04000086001B0704700BF85B0049069
:102FC000039102920193002000900498C069009040
:102FD00000984FF2470108400090009840F40060CC
:102FE00000900399009808430090029900980843C4
:102FF0000090019900980843009000980499C861D6
:1030000005B0704780B588B007900691059204938B
:10301000022003900020029001900090069838B999
:10302000FFE7FFE7FFE701200028FBD1FFE7FFE70D
:103030000799022008620020FFF7E0FC0090049846
:10304000B0F5007F0AD1FFE70098000A00EB80008E
:1030500040000699B0FBF1F0019017E0059850B9D7
:10306000FFE70098400900EB800040000699B0FBA4
:10307000F1F0019009E00098800900EB8000400029
:103080000699B0FBF1F00190FFE7FFE701980530EA
:103090004CF6CD41CCF6CC41A0FB0110C00801900C
:1030A000019800F00100029001980299401A40082E
:1030B00003900298000202900398022805D3FFE7CC
:1030C0000398B0F5807F05D3FFE70220039000202E
:1030D0000290FFE70398029908430499084307996F
:1030E00008620799C86920F00700C861059A079926
:1030F000C8691043C86108B080BD00BF81B00090AE
:103100000099C86940F48060C86101B0704700BF91
:1031100081B000900099C86920F48060C86101B056
:10312000704700BF81B000900099486840F00400EB
:10313000486001B0704700BF81B0009000994868B6
:1031400020F00400486001B0704700BF81B00090DB
:103150000099086840F48070086001B0704700BFB3
:1031600081B000900099086820F48070086001B078
:10317000704700BF82B001908DF803109DF80300E6
:1031800030B9FFE70199486840F00200486005E067
:103190000199486840F001004860FFE702B07047BD
:1031A00082B001908DF803109DF8030030B9FFE75D
:1031B0000199486820F00200486005E001994868DC
:1031C00020F001004860FFE702B0704782B0019034
:1031D000ADF802100199086820F400600860BDF89D
:1031E0000220019908681043086002B0704700BFD0
:1031F00082B00190ADF80210BDF802000199C860DC
:1032000002B0704781B000900098C06880B201B0F1
:10321000704700BF82B0019000910098B0F5804FD8
:1032200006D1FFE70199086840F48040086005E096
:103230000199086820F480400860FFE702B07047F9
:1032400082B0019000910098C0430199886002B05B
:10325000704700BF82B00190ADF80210BDF80200C7
:103260000199086102B0704781B000900098006930
:1032700080B201B0704700BF81B00090009908682B
:1032800040F40050086001B0704700BF81B000906A
:103290000099086820F40050086001B0704700BF32
:1032A00081B000900099086840F48050086001B037
:1032B000704700BF83B001908DF803109DF80300A4
:1032C00028B9FFE701988069ADF80A0004E0019889
:1032D0004069ADF80A00FFE7BDF80A0003B0704787
:1032E00081B0009000996FF01000886001B07047C5
:1032F00081B000900099486840F01000486001B02B
:10330000704700BF81B000900099486820F010001D
:10331000486001B0704700BF81B0009000994868D4
:1033200040F00800486001B0704700BF81B00090D5
:103330000099486820F00800486001B0704700BF5D
:1033400081B000900099D1F8800040F00100C1F8F0
:10335000800001B0704700BF81B000900099D1F8A3
:10336000800020F00100C1F8800001B0704700BF6C
:1033700081B000900099D1F8800020F00200C1F8DF
:10338000800001B0704700BF81B000900099D1F873
:10339000800040F00200C1F8800001B0704700BF1B
:1033A00081B000900099D1F8800040F00400C1F88D
:1033B000800001B0704700BF81B000900099D1F843
:1033C000800020F00400C1F8800001B0704700BF09
:1033D00083B002908DF807109DF807000146009118
:1033E00040B1FFE7009801280AD0FFE700980228C3
:1033F0000CD011E00299486840F0800048600CE071
:103400000299486840F04000486006E00299486828
:1034100040F02000486000E0FFE703B0704700BFC5
:1034200083B002908DF807109DF8070001460091C7
:1034300040B1FFE7009801280AD0FFE70098022872
:103440000CD011E00299486820F0800048600CE040
:103450000299486820F04000486006E002994868F8
:1034600020F02000486000E0FFE703B0704700BF95
:1034700086B004908DF80F1004988068029004982C
:10348000406801909DF80F0001460091062845D83C
:103490000099DFE801F0040D161F28313A00029868
:1034A00000F002000290019800F08000019036E0E8
:1034B000029800F001000290019800F04000019095
:1034C0002DE0029800F040000290019800F02000EA
:1034D000019024E0029800F020000290019800F092
:1034E000200001901BE0029800F01000029001986B
:1034F00000F02000019012E0029800F00800029015
:10350000019800F02000019009E0029800F480701A
:103510000290019800F02000019000E0FFE702987F
:1035200038B1FFE7019820B1FFE701208DF81700BF
:1035300003E000208DF81700FFE79DF8170006B0A4
:10354000704700BF83B00190009101988068009996
:10355000084204D0FFE701208DF80B0003E00020B3
:103560008DF80B00FFE79DF80B0003B070470000DB
:1035700080B588B007900798069044F20041C4F2E5
:103580000001884229D0FFE7069844F60001C4F202
:10359000000188422AD0FFE7069844F60041C4F2B1
:1035A000000188422BD0FFE7069845F20001C4F2E3
:1035B000000188422CD0FFE7069843F60001C4F2D0
:1035C000010188422DD1FFE740F20E300590FEF751
:1035D0007BFF0598FEF78CFF24E040F21140049039
:1035E000FEF772FF0498FEF783FF1BE040F21240E3
:1035F0000390FEF769FF0398FEF77AFF12E040F2AE
:1036000013400290FEF760FF0298FEF771FF09E099
:1036100040F214400190FEF757FF0198FEF768FF53
:1036200000E0FFE708B080BD80B588B00790069144
:10363000002005900490039002900798019044F2B6
:103640000041C4F20001884225D0FFE7019844F60A
:103650000001C4F20001884222D0FFE7019844F63D
:103660000041C4F2000188421FD0FFE7019845F2F3
:103670000001C4F2000188421CD0FFE7019843F624
:103680000001C4F20101884219D1FFE70320FFF7CE
:10369000B5F9059014E00220FFF7B0F905900FE0AE
:1036A0000220FFF7ABF905900AE00220FFF7A6F928
:1036B000059005E00220FFF7A1F9059000E0FFE783
:1036C0000598069900EB5100B0FBF1F002900298CA
:1036D0004FF6F07108400490029800F00F0003903C
:1036E000BDF81000BDF80C1008430799886008B0B9
:1036F00080BD00BF82B0019000910199C86820F49C
:10370000C060C860009A0199C8681043C86002B0E0
:10371000704700BF82B0019000910199C86820F401
:103720008050C860009A0199C8681043C86002B010
:10373000704700BF82B0019000910199086920F4A0
:1037400040500861009A019908691043086102B06D
:10375000704700BF81B000900099C86840F40050E5
:10376000C86001B0704700BF81B000900099C86880
:1037700020F40050C86001B0704700BF82B00190D3
:1037800000910199C86820F00800C860009800F016
:1037900008020199C8681043C86002B0704700BFB2
:1037A00082B0019000910199C86820F00400C860BF
:1037B000009800F004020199C8681043C86002B084
:1037C000704700BF82B0019000910199D1F880004C
:1037D00020F40060C1F88000009A0199D1F88000BF
:1037E0001043C1F8800002B0704700BF83B0029060
:1037F0008DF807109DF8070001460091052835D87F
:103800000099DFE801F0031B0B23132B0299D1F879
:10381000800040F48060C1F8800028E00299D1F86F
:10382000800040F40070C1F8800020E00299D1F8D7
:10383000800040F48070C1F8800018E00299D1F84F
:10384000800020F48060C1F8800010E00299D1F877
:10385000800020F40070C1F8800008E00299D1F8DF
:10386000800020F48070C1F8800000E0FFE703B022
:10387000704700BF81B000900099D1F8800040F0FF
:103880000100C1F8800001B0704700BF81B0009016
:103890000099D1F8800020F00100C1F8800001B04B
:1038A000704700BF82B0019000910199D1F8840067
:1038B00000F07F40C1F88400009A0199D1F884009B
:1038C0001043C1F8840002B0704700BF82B001907D
:1038D000ADF80210BDF802006FF35F200199486057
:1038E00002B0704781B00090009840686FF35F208D
:1038F00001B0704782B001908DF8031001990869FA
:1039000020F00F0008619DF8030000F00F020199FC
:1039100008691043086102B0704700BF81B0009091
:103920000099C86840F00200C86001B0704700BF4D
:1039300081B000900099C86820F00200C86001B012
:10394000704700BF82B0019000910199C86820F4CF
:103950000060C860009A0199C8681043C86002B04E
:10396000704700BF81B000900099086940F4804022
:10397000086101B0704700BF81B0009000990869EC
:1039800020F48040086101B0704700BF82B0019010
:1039900000910199086920F020000861009800F06A
:1039A0002002019908691043086102B0704700BF06
:1039B00081B000900099C86840F00100C86001B073
:1039C000704700BF81B000900099486940F008003E
:1039D000486101B0704700BF81B00090009948690C
:1039E00020F00800486101B0704700BF81B000902E
:1039F0000099086940F40060086101B0704700BF99
:103A000081B000900099086920F40060086101B05D
:103A1000704700BF84B00390029101920093039914
:103A2000086920F4E0600861029800F48070019950
:103A300001F400710844009901F48061421803996F
:103A400008691043086104B0704700BF82B001905C
:103A50008DF803100199886920F47F4088619DF8F2
:103A600003200199886940EA0220886102B070470A
:103A700081B000900099486940F02000486101B091
:103A8000704700BF81B000900099486920F0200085
:103A9000486101B0704700BF81B00090009948694B
:103AA00040F01000486101B0704700BF81B0009045
:103AB0000099486920F01000486101B0704700BFCC
:103AC00082B001908DF803100199D1F8800020F0A8
:103AD0000E00C1F880009DF8030000F00702019974
:103AE000D1F8800040EA4200C1F8800002B070477F
:103AF00082B001908DF803100199D1F8840020F074
:103B00007F40C1F884009DF803200199D1F884001A
:103B100040EA0260C1F8840002B0704781B00090B2
:103B20000099486940F00200486101B0704700BF49
:103B300081B000900099486920F00200486101B00E
:103B4000704700BF82B001908DF803100199886919
:103B500020F0FF0088619DF80320019988691043D7
:103B6000886102B0704700BF82B001900091019956
:103B7000486920F004004861009800F004020199AF
:103B800048691043486102B0704700BF82B001909D
:103B900000910199486920F480704861009800F410
:103BA0008072019948691043486102B0704700BFB4
:103BB00082B0019000910199486920F40070486139
:103BC000009800F40072019948691043486102B0FE
:103BD000704700BF82B001908DF8031001994869C9
:103BE00020F0400048619DF8030000F04002019978
:103BF00048691043486102B0704700BF82B001902D
:103C00008DF803100199486920F0800048619DF803
:103C1000030000F08002019948691043486102B036
:103C2000704700BF83B00190ADF802100198BDF855
:103C3000021089094058BDF8021001F01F01C84068
:103C4000C00720B1FFE701208DF80B0003E0002042
:103C50008DF80B00FFE79DF80B0003B0704700BF25
:103C600082B00190ADF80210BDF8022002F01F01F1
:103C700001208840C04301999209885002B07047E2
:103C800082B00190ADF80210BDF8020000F01F02F2
:103C9000012101FA02F301998209885818438850DA
:103CA00002B0704782B00190ADF80210BDF802007A
:103CB00000F01F02012101FA02F3019982098858DC
:103CC0009843885002B0704785B00390029100205D
:103CD000019000900398BDF8081089094058029996
:103CE00001F01F02012101FA02F210400190039835
:103CF000029A920D8058029AC2F304429140084001
:103D00000090009838B1FFE7019820B1FFE701204B
:103D10008DF8130003E000208DF81300FFE79DF8F5
:103D2000130005B0704700BF82B001900091009A67
:103D3000C2F3044101208840C0430199920D88508C
:103D400002B070470648804706480047FEE7FEE796
:103D5000FEE7FEE7FEE7FEE7FEE7FEE7FEE7FEE73B
:103D6000250900083101000880B586B0059040F2B1
:103D7000E330ADF812004FF45871ADF81010002187
:103D80000291ADF80E10ADF80C00059840F29811B4
:103D9000C2F20001086048F27D40C0F6000003F066
:103DA00017FD48F2B430C0F6000003F011FD48F2F0
:103DB0005840C0F6000003F00BFD45F22910C0F694
:103DC000000001F011FC48F29030C0F6000003F052
:103DD000FFFC029801F026FC40F6AC000190962111
:103DE00003F0C6F8012001F09DFE0299084602F09A
:103DF000C9F90299162002F035F8BDF81200BDF895
:103E00001010BDF80E20BDF80C3001F04DFF0198E8
:103E100001F094F940F6890001F090F9029840F21F
:103E20006D11C2F20001087006B080BD80B582B08D
:103E300002F05CFF01460091042808D0FFE70098DB
:103E4000052808D0FFE70098072808D00BE00220DB
:103E50008DF807000BE001208DF8070007E0032034
:103E60008DF8070003E000208DF80700FFE79DF8BC
:103E7000070002B080BD00BF80B584B08DF80F0090
:103E80009DF80F000146029128B1FFE70298012832
:103E90000CD0FFE7FFE70020019001F0CFFF019871
:103EA00040F2B011C2F2000148701EE0012001F0A2
:103EB000C5FF40F2B010C2F200000178407800F077
:103EC000010001F0010188420ED0FFE740F2B0107E
:103ED000C2F20000017801F001014170407800F069
:103EE000010000F041FFFFE7FFE704B080BD00BF25
:103EF00080B582B00190019801F040FF02B080BD12
:103F000080B594B013901291ADF846201093012023
:103F10000D908DF83F0000200C90ADF83C000E9005
:103F2000FFF7AAFF1398FFF7E3FF0C9B0D9A129976
:103F300068460B9042620362C3618361436103611F
:103F4000C36083600322426001604FF4167218461A
:103F500000F040F80C9800F045FE0D9802F0D0FB00
:103F6000FFE70E981099884217D2FFE7012002F070
:103F7000C7FB0E9801300E90002000F07DFEADF8DA
:103F80003C00BDF93C00BDF94610884204DDFFE766
:103F900000208DF83F0000E0E3E700F005FE9DF80B
:103FA0003F0000F0010014B080BD00BF80B582B0BA
:103FB0000020009001900120FFF75EFF009B184653
:103FC00019461A4601F070FE01F054FC0190019868
:103FD00002B080BD2DE9F04F95B01F46904689464E
:103FE000824627982699259A249BDDF88CC0DDF817
:103FF00088E0219C209D1F9EDDF878B08DF853A0AD
:10400000CDF84C90CDF848808DF84770ADF84460FD
:10401000ADF842508DF841408DF840E08DF83FC03A
:104020008DF83E308DF83D208DF83C108DF83B002A
:104030009DF83B0000F0010040F2B221C2F2000105
:1040400008709DF83B00C00720B1FFE70020ADF8E5
:104050004200FFE79DF84100C00740B1FFE79DF82F
:10406000400040F20801C2F20001087006E040F290
:104070000801C2F20001FF200870FFE79DF853001D
:1040800001460B9128B1FFE70B98012800F08680CC
:104090004CE100200A9001F0E9FC0A9840F214017A
:1040A000C2F20001099181F838001298C8630B2010
:1040B00081F844001398400001F098F809990246ED
:1040C0000A9881F845208874BDF84420D2008A827D
:1040D00004228A751822CA7508769DF841200120AD
:1040E0009043487640F20800C2F2000000788876DB
:1040F0009DF83F00C00738B1FFE740F21401C2F25B
:104100000001F220C87606E040F21401C2F200017C
:104110000120C876FFE740F21401C2F200010691C7
:104120000120087700F058FD069911F8380F079123
:1041300026390891002818BF0120FFF79DFE079837
:1041400001F0D0FE089801F045FFC1208DF8330042
:1041500094218DF834108DF8350000208DF836004C
:104160008DF837008DF838008DF839008DF83A0059
:104170000DF1330001F00AFB40F2FF1001F04CFB9F
:10418000BDF842004FF4FA5148431299B0FBF1F0E8
:1041900040F2B421C2F200010860C7E0002001F043
:1041A00065FC40F21401C2F20001012081F83800E0
:1041B000129881F84800139A48F2C200C0F6000035
:1041C000805C81F849009DF8470081F84A00139807
:1041D00040B9FFE712980B280CD0FFE712980C2883
:1041E00008D0FFE7139801280CD1FFE712980C289C
:1041F00008D1FFE740F21401C2F20001012081F86A
:104200004B0007E040F21401C2F20001002081F8E7
:104210004B00FFE740F21400C2F20000012181745C
:1042200090F84800052809D0FFE740F21400C2F2D8
:10423000000090F84800062815D1FFE7BDF84400BB
:104240000B2807DCFFE740F21401C2F200010C204A
:10425000C88307E0BDF8440040F21401C2F2000137
:10426000C883FFE707E0BDF8440040F21401C2F242
:104270000001C883FFE79DF8410000F0010040F213
:104280001401C2F20001059181F8200040F20800FB
:10429000C2F20000007881F821009DF83F0000F094
:1042A000010081F822009DF83C0000F0010081F837
:1042B000230000F091FC059911F8380F039126397D
:1042C0000491002818BF0120FFF7D6FD039801F0E4
:1042D00009FE049801F07EFE9DF8420001F0D2FB39
:1042E000059890F8230001280CD1FFE740F23670C2
:1042F000029002F09FFE0146029801F0FB0102F0DD
:1043000037FE0BE040F23670019002F093FE01465A
:10431000019841F0040102F02BFEFFE740F2B421C6
:10432000C2F200014FF6FF700860FFE715B0BDE86C
:10433000F08F00BF2DE9F04393B01D4616460F469F
:1043400080462298219820991F9A1E9BDDF874C000
:10435000DDF870E01B9CDDF868908DF84B808DF8DF
:104360004A70119610958DF83F40ADF83CE08DF8FD
:104370003BC08DF83A308DF839208DF838108DF823
:1043800037009DF84B0001460A9120B1FFE70A98DB
:10439000012871D00CE140F21401C2F20001089131
:1043A0000020099081F838001A98C8630B2081F822
:1043B00044001098400000F019FF0899024609983F
:1043C00081F84520119A0A648874BDF83C20D20017
:1043D0008A8204228A751822CA7508769DF83B20C5
:1043E0000120904348769DF83A00C00738B1FFE7B6
:1043F00040F21401C2F20001F220C87606E040F259
:104400001401C2F200010120C876FFE740F2140156
:10441000C2F2000105910120087700F0DDFB05994B
:1044200011F8380F069126390791002818BF01208E
:10443000FFF722FD069801F055FD079801F0CAFD2F
:10444000C1208DF82F0094218DF830108DF83100A7
:1044500000208DF832008DF833008DF834008DF88F
:1044600035008DF836000DF12F0001F08FF940F284
:10447000FF1001F0D1F99BE040F21401C2F20001FB
:10448000012081F838001A9881F84800109A48F203
:10449000C200C0F60000805C81F849009DF83F0032
:1044A00081F84A00109840B9FFE71A980B280CD001
:1044B000FFE71A980C2808D0FFE7109801280CD1C4
:1044C000FFE71A980C2808D1FFE740F21401C2F266
:1044D0000001012081F84B0007E040F21401C2F214
:1044E0000001002081F84B00FFE740F21400C2F207
:1044F00000000121817490F84800052809D0FFE7E9
:1045000040F21400C2F2000090F84800062815D1CD
:10451000FFE7BDF83C000B2807DCFFE740F2140181
:10452000C2F200010C20C88307E0BDF83C0040F255
:104530001401C2F20001C883FFE707E0BDF83C00A8
:1045400040F21401C2F20001C883FFE79DF83B006E
:1045500000F0010040F21401C2F20001029181F862
:10456000200040F20800C2F20000007881F821002B
:104570009DF83A0000F0010081F822009DF8370014
:1045800000F0010081F8230000F026FB029911F8E9
:10459000380F039126390491002818BF0120FFF736
:1045A0006BFC039801F09EFC049801F013FDFFE7FB
:1045B0009DF84B00012815D1FFE740F21400C2F22C
:1045C000000090F8490006280CD1FFE740F689006A
:1045D000019002F02FFD0146019801F0FB0102F06D
:1045E000C7FC0BE040F68900009002F023FD014675
:1045F000009841F0040102F0BBFCFFE79DF94A007E
:1046000002F0BCFD229840F2BC21C2F20001086019
:1046100013B0BDE8F08300BF2DE9F04F8DB01F4609
:104620009046894682461F981E991D9A1C9BDDF86C
:104630006CC0DDF868E0199C189D179EDDF858B035
:104640008DF833A0CDF82C90CDF828808DF8277008
:10465000ADF82460ADF822508DF821408DF820E0AF
:104660008DF81FC08DF81E308DF81D208DF81C10A0
:104670008DF81B009DF81B0000F0010040F2B221F4
:10468000C2F2000108709DF81B00C00720B1FFE7CF
:104690000020ADF82200FFE79DF82100C00740B1DF
:1046A000FFE79DF8200040F20801C2F20001087007
:1046B00006E040F20801C2F20001FF200870FFE7A7
:1046C0009DF833000146059120B1FFE705980128C8
:1046D00001D0B8E0B7E040F21401C2F200010120BD
:1046E00081F838000A9881F848000B9A48F2C20015
:1046F000C0F60000805C81F849009DF8270081F831
:104700004A000B9840B9FFE70A980B280CD0FFE746
:104710000A980C2808D0FFE70B9801280CD1FFE776
:104720000A980C2808D1FFE740F21401C2F20001F8
:10473000012081F84B0007E040F21401C2F20001B1
:10474000002081F84B00FFE740F21400C2F20000A5
:104750000121817490F84800052809D0FFE740F254
:104760001400C2F2000090F84800062815D1FFE7B7
:10477000BDF824000B2807DCFFE740F21401C2F269
:1047800000010C20C88307E0BDF8240040F21401AA
:10479000C2F20001C883FFE707E0BDF8240040F241
:1047A0001401C2F20001C883FFE79DF8210000F068
:1047B000010040F21401C2F20001049181F82000CE
:1047C00001F11200039040F20800C2F200000078EC
:1047D00081F821009DF81F0000F0010081F82200FF
:1047E0009DF81C0000F0010081F823009DF82200D4
:1047F00001F048F9039801F0EDFB049890F82300CC
:1048000001280CD1FFE740F23670029002F012FC52
:104810000146029801F0FB0102F0AAFB0BE040F216
:104820003670019002F006FC0146019841F0040147
:1048300002F09EFBFFE740F2B421C2F200014FF606
:10484000FF700860FFE70DB0BDE8F08F2DE9F04381
:104850008DB01D4616460F4680461C981B981A9927
:10486000199A189BDDF85CC0DDF858E0159CDDF85E
:1048700050908DF833808DF832700B960A958DF834
:104880002740ADF824E08DF823C08DF822308DF854
:1048900021208DF820108DF81F009DF8330001466F
:1048A000069120B1FFE70698012801D09CE09BE02B
:1048B00040F21401C2F20001012081F8380014987E
:1048C00081F848000A9A48F2C200C0F60000805CF5
:1048D00081F849009DF8270081F84A000A9840B9FC
:1048E000FFE714980B280CD0FFE714980C2808D089
:1048F000FFE70A9801280CD1FFE714980C2808D18B
:10490000FFE740F21401C2F20001012081F84B00E0
:1049100007E040F21401C2F20001002081F84B00D0
:10492000FFE740F21400C2F200000121817490F808
:104930004800052809D0FFE740F21400C2F2000049
:1049400090F84800062815D1FFE7BDF824000B2891
:1049500007DCFFE740F21401C2F200010C20C8831B
:1049600007E0BDF8240040F21401C2F20001C88340
:10497000FFE707E0BDF8240040F21401C2F2000195
:10498000C883FFE79DF8230000F0010040F2140106
:10499000C2F20001039181F8200040F20800C2F247
:1049A0000000007881F821009DF8220000F001004D
:1049B00081F822009DF81F0000F0010081F823001B
:1049C00000F00AF9039911F8380F0491263905917E
:1049D000002818BF0120FFF74FFA049801F082FA6F
:1049E000059801F0F7FAFFE79DF83300012815D18B
:1049F000FFE740F21400C2F2000090F849000628D8
:104A00000CD1FFE740F68900029002F013FB01464B
:104A1000029801F0FB0102F0ABFA0BE040F68900CE
:104A2000019002F007FB0146019841F0040102F0F9
:104A30009FFAFFE79DF9320002F0A0FB1C9840F2BC
:104A4000BC21C2F2000108600DB0BDE8F08300BFD8
:104A500081B00090012001B0704700BF70B58CB0EC
:104A60009C4696460C46054613981299119A109B3F
:104A70008DF82F500A94CDF824E08DF823C0ADF8BE
:104A800020308DF81F208DF81E108DF81D0000209D
:104A90000690012005909DF82F000146049120B159
:104AA000FFE7049801281DD043E009989DF82310E2
:104AB000BDF820209DF81EC09DF81F309DF81DE018
:104AC0000EF00104EE46CEF80440CEF800C003F02C
:104AD000010300F0CFFB4FF47A7148430690099828
:104AE000059026E00A9809999DF82320BDF820300A
:104AF0009DF81E409DF81FC09DF81DE00EF00105B9
:104B0000EE46CEF80850CEF804400CF0010CCEF87A
:104B100000C000F0E1FB4FF47A71484306900A9917
:104B200048F2C200C0F60000405C00F075FC059041
:104B3000FFE70698059908440138B0FBF1F00CB086
:104B400070BD00BF80B582B001908DF8031040F2B7
:104B50000121002308461A4601F0A6F800F03CFEA9
:104B6000012809D1FFE79DF8030040F21401C2F2C9
:104B7000000181F8210007E09DF8030040F21401D4
:104B8000C2F200018876FFE740F21400C2F2000092
:104B9000123001F01FFA01989DF80310002200F076
:104BA000CBFD02B080BD00BF80B582B000208DF883
:104BB00004009DF8040040F004008DF804009DF806
:104BC00004008DF80000009800F0B4FE022001F00F
:104BD00097FD02B080BD00BF80B5002000F022FD2F
:104BE00080BD00BF80B582B001900221002308463D
:104BF0001A4601F059F8019808B1FFE7FFE740F2C3
:104C0000B220C2F200000078C00728B1FFE76FF0C1
:104C10007F4000F071FE08E040F2B420C2F20000D4
:104C20000068800100F068FEFFE702B080BD00BFB1
:104C300080B54FF6FF71002308461A4601F034F89C
:104C400000F0F6FE80BD00BF80B584B003908DF803
:104C50000B10ADF80820BDF808004FF47A714843F6
:104C60000190039801F08AF89DF90B0002F086FA92
:104C700000F0E8FE04B080BD80B582B08DF807007A
:104C800001F0BEFA02B080BD80B582B001908DF80F
:104C90000310BDF804009DF8031002F069F902B09A
:104CA00080BD00BF80B582B00190BDF8040002F065
:104CB000C1F902B080BD00BF80B584B003900291FD
:104CC0008DF80720BDF80C0002999DF8072002F02E
:104CD00003F904B080BD00BF80B584B00390029199
:104CE0008DF80720BDF80C0002999DF8072002F00E
:104CF0004FF904B080BD00BF80B582B08DF80700C9
:104D00008DF806109DF80700012811D1FFE79DF8E6
:104D1000061040F20800C2F20000017040F21400D8
:104D2000C2F2000080F82110123001F053F918E0AF
:104D300040F21400C2F20000407E012810D1FFE7CB
:104D40009DF8061040F20800C2F20000017040F227
:104D50001400C2F200008176123001F03BF9FFE747
:104D6000FFE702B080BD00BF80B582B08DF80700BC
:104D70009DF8070000F0010040F2B011C2F20001FE
:104D8000087048700120FFF777F89DF80700C0070A
:104D900058B1FFE74FF4E860342102F0E9F840F23F
:104DA0004170442102F0E4F80DE014208DF8050074
:104DB00024208DF806004FF4E8600DF10501022271
:104DC00002F08AF8FFE702B080BD00BF80B501F0B5
:104DD00085FF033080BD00BF80B584B040F26D1107
:104DE000C2F20001087800F001008DF80F000020E9
:104DF000087000F08BFFADF80C00BDF80C0001F05E
:104E0000E5FA02F0D3F9012807D1FFE740F26D116E
:104E1000C2F2000101200870FFE7BDF80C00C007D6
:104E2000D8B1FFE7012001F067FF40F29810C2F20D
:104E30000000006880B1FFE740F29810C2F2000065
:104E40000068006840B1FFE740F29810C2F200002D
:104E5000006800688047FFE7FFE7BDF80C008007A7
:104E6000002840F18080FFE7BDF80C0040060028D4
:104E700024D5FFE740F2B220C2F200000078C0075C
:104E800020B9FFE7012001F037FFFFE740F298105B
:104E9000C2F20000006880B1FFE740F29810C2F251
:104EA00000000068006940B1FFE740F29810C2F2CC
:104EB0000000006800698047FFE753E040F2B2203D
:104EC000C2F200000078C007A0B9FFE7012001F09E
:104ED00013FF40F60210002102F04AF840F6441099
:104EE000019002F0A7F80146019841F0020102F09A
:104EF0003FF8FFE740F2B210C2F200000DF10B01E3
:104F0000FF2200F0C7FB40F29C10C2F2000001F04B
:104F10008DF940F29810C2F20000006808B3FFE774
:104F200040F29810C2F2000000688068C8B1FFE744
:104F300040F29810C2F200000068D0F808C09DF856
:104F40000B1040F29C10C2F2000090F90C2090F976
:104F50000D3040F2B210C2F20000E04700F0F2FA69
:104F6000FFE7FFE7FFE7BDF80C000006002819D5B2
:104F7000FFE7BDF80C00C005002809D5FFE748F29F
:104F8000DE30C0F6000002F023FCFBF713FC08E063
:104F900048F2F930C0F6000002F01AFCFBF712FCF0
:104FA000FFE7FFE7BDF80C008005002844D5FFE7C8
:104FB00001F09CFE04281BD1FFE7012001F09CFEBC
:104FC00040F29810C2F20000006880B1FFE740F2A2
:104FD0009810C2F200000068406840B1FFE740F25C
:104FE0009810C2F20000006840688047FFE722E0A6
:104FF00001F07CFE05281DD1FFE7012001F07CFEB9
:1050000040F29810C2F20000006890B1FFE740F251
:105010009810C2F200000068C06850B1FFE740F28B
:105020009810C2F200000068C068804700F0A2FA41
:10503000FFE7FFE7FFE7FFE7BDF80C0040070028A8
:1050400003D5FFE7AFF30080FFE7BDF80C000007D2
:10505000002803D5FFE700F095FAFFE7BDF80C0044
:10506000C006002803D5FFE700F09CFAFFE7BDF873
:105070000C008006002824D5FFE740F2B220C2F2DF
:1050800000000078C00720B9FFE7012001F034FEDE
:10509000FFE740F29810C2F20000006880B1FFE71D
:1050A00040F29810C2F200000068C06840B1FFE70B
:1050B00040F29810C2F200000068C0688047FFE725
:1050C000FFE704B080BD00BF80B582B001904FF60D
:1050D000FF71002308461A4600F0E6FD019808B16A
:1050E000FFE7FFE740F2B220C2F200000078C007FD
:1050F00028B1FFE76FF07F4000F056FC08E040F277
:10510000B420C2F200000068800100F04DFCFFE70F
:1051100002B080BD80B582B00190009101980099E5
:1051200000F060FC02B080BD81B0009040F26D11D3
:10513000C2F200010120087001B0704780B586B04E
:10514000ADF8160040F29F200DF10D0100910922EB
:1051500001F01EFF00989DF80D108DF80C10013025
:10516000029000208DF80700FFE79DF807009DF8EA
:105170000C10884217DAFFE7BDF81600029A9DF876
:10518000073002EB430112F81320497841EA02216B
:10519000884201D1FFE727E0FFE79DF807000130D3
:1051A0008DF80700E1E79DF80C0003281CDCFFE701
:1051B0009DF80D0001308DF80D009DF81700029943
:1051C0009DF80C2001F812009DF8160002999DF838
:1051D0000C2001EB4201487040F29F200DF10D01BF
:1051E000092201F079FEFFE706B080BD83B001908F
:1051F000019820B9FFE71F208DF80B0036E0002052
:105200008DF80300FFE79DF8030014282CD8FFE772
:1052100001989DF8032048F2C801C0F6000151F83A
:105220003210884219D3FFE701989DF8032048F215
:10523000C801C0F6000101EBC201896888420CD2A6
:10524000FFE79DF8031048F2C800C0F6000000EB2D
:10525000C100007B8DF80B0008E0FFE79DF803001C
:1052600001308DF80300CEE7FFE7FEE79DF80B0065
:1052700003B0704710B584B08C46864607980699EF
:10528000CDF80CE08DF80BC0ADF808208DF8073094
:105290008DF806108DF8050000208DF8040003201D
:1052A0008DF80300BDF80830D8009DF807200821CC
:1052B00001EBC301D207002A08BF08469DF806107B
:1052C0009DF80520D3078A1C002B18BF114600EB60
:1052D000C100183004B010BDB0B589B094468E46F8
:1052E00004460F980E990D9A0894CDF81CE08DF89D
:1052F0001BC0ADF818308DF817208DF816108DF8FA
:1053000015009DF81B000430049000208DF80F005C
:105310000798052804D0FFE7079806280AD1FFE779
:10532000BDF818000B2804DCFFE70C20ADF81800CE
:10533000FFE7FFE7089840B9FFE707980B280CD074
:10534000FFE707980C2808D0FFE70898012808D144
:10535000FFE707980C2804D1FFE701208DF80F0024
:10536000FFE79DF81630D8009DF81520102101EBBD
:10537000C301D207002A18BF08460799A0EB810194
:105380009DF8172001F11400D207002A18BF084623
:1053900001900798062804D8FFE70798800002903C
:1053A00013E00198083001909DF80F00C00738B154
:1053B000FFE707996FF0070000EB8100029003E020
:1053C000079880000290FFE7FFE70198B0F1FF3FE8
:1053D00003DCFFE700200190FFE7019802990844F1
:1053E000013890FBF1F00499BDF8182000FB012072
:1053F0000C3000900798062804D8FFE70098023088
:105400000090FFE700988000013007998A1E012173
:105410009140484309B0B0BD83B08DF80B00002027
:1054200001909DF80B00014600910A2836D800999A
:10543000DFE801F0060E161E22282E340A121A008A
:1054400041F68460019029E042F6B100019025E028
:1054500043F60950019021E045F2611001901DE0F2
:1054600047F61220019019E04AF2C320019015E09E
:105470004FF22440019011E04EF64800C0F20100C6
:1054800001900BE04DF29000C0F20300019005E0A6
:105490004AF22010C0F207000190FFE7019803B024
:1054A000704700BF80B584B003908DF80B10ADF845
:1054B0000820BDF808004FF47A7148430190039822
:1054C00000F05CFC9DF90B0001F058FE00F0C4FAFE
:1054D00004B080BD80B582B0019040F29810C2F255
:1054E0000000006880B1FFE740F29810C2F20000AF
:1054F0000068406840B1FFE740F29810C2F2000037
:10550000006840688047FFE702B080BD80B582B088
:10551000019040F29810C2F20000006880B1FFE7ED
:1055200040F29810C2F200000068C06840B1FFE786
:1055300040F29810C2F200000068C0688047FFE7A0
:1055400002B080BD80B548F24140C0F6000002F0D4
:105550003FF980BD80B548F2C730C0F6000002F0C8
:1055600037F980BD80B548F21740C0F6000002F060
:105570002FF980BD80B548F28440C0F6000002F0EB
:1055800027F980BD80B548F23040C0F6000002F037
:105590001FF980BD80B548F24F40C0F6000002F010
:1055A00017F980BD80B548F26F40C0F6000002F0E8
:1055B0000FF980BD704700BF704700BF704700BF44
:1055C000704700BF80B582B014208DF806002420FB
:1055D0008DF807004FF4E8600DF10601022201F09A
:1055E0007BFC02B080BD000080B582B0019001F06C
:1055F0008FFB019801F068FB01F0B2FB00200090E6
:1056000000F010F801F068FB01F06AFB009840F22E
:105610006C11C2F200010870012001F06DFB02B0B4
:1056200080BD00BF80B582B08DF8070080200DF1ED
:105630000701012201F0B8FB9DF8070020B9FFE740
:10564000012001F059FB03E0022001F055FBFFE7C8
:1056500002B080BD80B501F049FB28B1FFE701F041
:1056600045FB062805D1FFE701F07AFB01F094FD28
:10567000FFE701F067FB80BD80B582B001908DF837
:10568000031001999DF80320002001F0E3FC02B013
:1056900080BD00BF80B584B0029001918DF80320D9
:1056A00000208DF8020001980DF1020100F01AF8B7
:1056B000019800789DF80310884204DDFFE701207F
:1056C0008DF80F000AE09DF802000299019A127805
:1056D00001F008FD00208DF80F00FFE79DF80F0096
:1056E00004B080BD80B584B00390029113200DF109
:1056F0000601022201F0A0FB00F06EF801280FD194
:10570000FFE740F27010C2F200000078012807D1D4
:10571000FFE740F2027001F08DFC0399087004E08D
:105720009DF8060003990870FFE79DF807000299AD
:10573000087004B080BD00BF80B584B003908DF8C0
:105740000B10019203989DF80B10FFF795FF01983D
:1057500000F002F804B080BD80B582B00190042052
:1057600001F0CAFABDF806008DF801000198000AA0
:105770008DF8020001988DF8030083200DF10101DE
:10578000032201F011FB02B080BD00BF80B582B0E2
:10579000019001994FF4D860082201F09DFB002090
:1057A00002B080BD80B582B0ADF806009DF807005C
:1057B0008DF80400BDF806008DF8050000F00CF827
:1057C00038B9FFE740F2BC6001A9022201F084FB76
:1057D00000E0FFE702B080BD40F27210C2F20000AC
:1057E0000078704780B582B0ADF806009DF80700DC
:1057F0008DF80400BDF806008DF80500FFF7ECFFFA
:1058000038B9FFE740F2BE6001A9022201F064FB53
:1058100000E0FFE702B080BD80B582B0ADF80600C1
:1058200000208DF80500FFF7D7FFF8B9FFE74FF428
:10583000D760009001F0FEFB0146009801F0FE01E8
:105840008DF80510BDF80610C1F300219DF8052064
:1058500011438DF805109DF8051001F089FB9DF8A6
:10586000061040F2B96001F083FB00E0FFE702B0F0
:1058700080BD00BF80B586B00020019005908DF8F6
:1058800013008DF8120040F6E200029001F0D2FB06
:10589000014602988DF813109DF8131001F0FE01D7
:1058A00001F066FB40F6E500039001F0C3FB014602
:1058B00003988DF812109DF8121001F07F0101F08D
:1058C00057FB6FF07F4000F017F840F6190005A96C
:1058D000042201F05DFB0198FFF7A4FE02989DF8F9
:1058E000131001F045FB03989DF8121001F040FBE6
:1058F000059806B080BD00BF80B582B0019005203C
:1059000001F0FAF940F6AC00942101F031FBBDF84A
:1059100006008DF801000198000A8DF80200019838
:105920008DF8030082200DF10101032201F03CFA01
:1059300002B080BD80B584B002909DF808008DF85B
:105940000C0001F02BFC9DF80C10C1F380008000CE
:10595000C1F3400240EA420001F0010108448DF821
:1059600007009DF80C008008C00738B9FFE740F237
:105970006C11C2F2000100200870FFE784200DF1D5
:105980000701012201F010FA002001F0B5F904B07E
:1059900080BD00BF80B5C1200022114601F004FA8D
:1059A000032001F0A9F980BD80B582B001900520E7
:1059B00001F0A2F940F6AC00962101F0D9FABDF849
:1059C00006008DF801000198000A8DF80200019888
:1059D0008DF8030082200DF10101032201F0E4F9AA
:1059E00002B080BD80B586B005900491BDF8160068
:1059F0008DF80A000598000A8DF80B0005988DF8BF
:105A00000C00BDF812008DF80D000498000A8DF806
:105A10000E0004988DF80F0094200DF10A01062263
:105A2000019201F0C1F9019801F066F906B080BD5C
:105A300080B5C5200022114601F0B6F9072001F01B
:105A40005BF980BD80B5D1200022114601F0ACF990
:105A5000042001F051F980BD80B5D220002211460A
:105A600001F0A2F9042001F047F980BD80B582B0B1
:105A70008DF807009F200DF10701012201F094F934
:105A800002B080BD80B582B08DF807009DF8070098
:105A9000F92803DBFFE7F820009003E09DF80700FA
:105AA0000090FFE70098013040088DF806000020C4
:105AB0008DF805008DF80400FFE79DF8060020280A
:105AC0000CDBFFE79DF80600033080088DF8060028
:105AD0009DF8050001308DF80500EEE79DF8060001
